{
  "_format": "hh-sol-artifact-1",
  "contractName": "SimpleStorage",
  "sourceName": "contracts/SimpleStorage.sol",
  "abi": [
    {
      "inputs": [
        {
          "internalType": "uint256",
          "name": "_firstValue",
          "type": "uint256"
        }
      ],
      "stateMutability": "nonpayable",
      "type": "constructor"
    },
    {
      "inputs": [],
      "name": "data",
      "outputs": [
        {
          "internalType": "uint256",
          "name": "",
          "type": "uint256"
        }
      ],
      "stateMutability": "view",
      "type": "function"
    },
    {
      "inputs": [],
      "name": "firstValue",
      "outputs": [
        {
          "internalType": "uint256",
          "name": "",
          "type": "uint256"
        }
      ],
      "stateMutability": "view",
      "type": "function"
    },
    {
      "inputs": [],
      "name": "get",
      "outputs": [
        {
          "internalType": "uint256",
          "name": "",
          "type": "uint256"
        }
      ],
      "stateMutability": "view",
      "type": "function"
    },
    {
      "inputs": [
        {
          "internalType": "uint256",
          "name": "_data",
          "type": "uint256"
        }
      ],
      "name": "set",
      "outputs": [],
      "stateMutability": "nonpayable",
      "type": "function"
    }
  ],
  "bytecode": "0x608060405234801561001057600080fd5b506040516102643803806102648339818101604052810190610032919061007a565b80600181905550506100a7565b600080fd5b6000819050919050565b61005781610044565b811461006257600080fd5b50565b6000815190506100748161004e565b92915050565b6000602082840312156100905761008f61003f565b5b600061009e84828501610065565b91505092915050565b6101ae806100b66000396000f3fe608060405234801561001057600080fd5b506004361061004c5760003560e01c806360fe47b1146100515780636d4ce63c1461006d57806373d4a13a1461008b5780637b94ce29146100a9575b600080fd5b61006b60048036038101906100669190610121565b6100c7565b005b6100756100d1565b604051610082919061015d565b60405180910390f35b6100936100da565b6040516100a0919061015d565b60405180910390f35b6100b16100e0565b6040516100be919061015d565b60405180910390f35b8060008190555050565b60008054905090565b60005481565b60015481565b600080fd5b6000819050919050565b6100fe816100eb565b811461010957600080fd5b50565b60008135905061011b816100f5565b92915050565b600060208284031215610137576101366100e6565b5b60006101458482850161010c565b91505092915050565b610157816100eb565b82525050565b6000602082019050610172600083018461014e565b9291505056fea2646970667358221220ed0eb008ab719a22cc3745341ed100d78a512302605096321e7f8adbe7852c7264736f6c63430008180033",
  "linkReferences": {},
  "deployedLinkReferences": {}
}